{
  "contractName": "Lsiten",
  "abi": [
    {
      "inputs": [],
      "payable": false,
      "stateMutability": "nonpayable",
      "type": "constructor"
    },
    {
      "constant": false,
      "inputs": [],
      "name": "addTestId",
      "outputs": [],
      "payable": false,
      "stateMutability": "nonpayable",
      "type": "function"
    },
    {
      "constant": true,
      "inputs": [],
      "name": "lsitenGetTestId",
      "outputs": [
        {
          "name": "",
          "type": "uint256"
        }
      ],
      "payable": false,
      "stateMutability": "view",
      "type": "function"
    }
  ],
  "bytecode": "0x60806040526001805534801561001457600080fd5b50336000806101000a81548173ffffffffffffffffffffffffffffffffffffffff021916908373ffffffffffffffffffffffffffffffffffffffff160217905550610189806100646000396000f30060806040526004361061004c576000357c0100000000000000000000000000000000000000000000000000000000900463ffffffff168063979a307914610051578063bbdfab131461007c575b600080fd5b34801561005d57600080fd5b50610066610093565b6040518082815260200191505060405180910390f35b34801561008857600080fd5b506100916100f3565b005b60008060009054906101000a900473ffffffffffffffffffffffffffffffffffffffff1673ffffffffffffffffffffffffffffffffffffffff163373ffffffffffffffffffffffffffffffffffffffff1614156100f05760015490505b90565b6000809054906101000a900473ffffffffffffffffffffffffffffffffffffffff1673ffffffffffffffffffffffffffffffffffffffff163373ffffffffffffffffffffffffffffffffffffffff16141561015b576001600081548092919060010191905055505b5600a165627a7a723058205bc27c5ea3eefcffdc7724c3a6d18be430c8066750c84a74bcc62756422c791b0029",
  "source": "pragma solidity ^0.4.23;\r\n\r\ncontract Lsiten {\r\n  address ower;\r\n  uint testId = 1;\r\n  constructor() public {\r\n    ower = msg.sender;\r\n  }\r\n  modifier _checkower() {\r\n    if (msg.sender == ower) _;\r\n  }\r\n\r\n  function addTestId () public _checkower {\r\n    testId++;\r\n  }\r\n\r\n  function lsitenGetTestId () public view _checkower returns (uint) {\r\n    return testId;\r\n  } \r\n}\r\n",
  "sourcePath": "D:\\dongxin\\demo\\lsiten-truffle-vux\\contracts\\Lsiten.sol",
  "compiler": {
    "name": "solc",
    "version": "0.4.24+commit.e67f0147.Emscripten.clang"
  },
  "schemaVersion": "2.0.1",
  "updatedAt": "2018-11-28T08:05:18.032Z"
}